{
  "_format": "hh-sol-artifact-1",
  "contractName": "HEI",
  "sourceName": "contracts/heima/HEI.sol",
  "abi": [
    {
      "inputs": [
        {
          "internalType": "contract IERC20",
          "name": "underlyingToken",
          "type": "address"
        },
        {
          "internalType": "string",
          "name": "_name",
          "type": "string"
        },
        {
          "internalType": "string",
          "name": "_symbol",
          "type": "string"
        },
        {
          "internalType": "address",
          "name": "_admin",
          "type": "address"
        }
      ],
      "stateMutability": "nonpayable",
      "type": "constructor"
    },
    {
      "inputs": [],
      "name": "AccessControlBadConfirmation",
      "type": "error"
    },
    {
      "inputs": [
        {
          "internalType": "uint48",
          "name": "schedule",
          "type": "uint48"
        }
      ],
      "name": "AccessControlEnforcedDefaultAdminDelay",
      "type": "error"
    },
    {
      "inputs": [],
      "name": "AccessControlEnforcedDefaultAdminRules",
      "type": "error"
    },
    {
      "inputs": [
        {
          "internalType": "address",
          "name": "defaultAdmin",
          "type": "address"
        }
      ],
      "name": "AccessControlInvalidDefaultAdmin",
      "type": "error"
    },
    {
      "inputs": [
        {
          "internalType": "address",
          "name": "minter",
          "type": "address"
        }
      ],
      "name": "AccessControlInvalidMinter",
      "type": "error"
    },
    {
      "inputs": [
        {
          "internalType": "address",
          "name": "account",
          "type": "address"
        },
        {
          "internalType": "bytes32",
          "name": "neededRole",
          "type": "bytes32"
        }
      ],
      "name": "AccessControlUnauthorizedAccount",
      "type": "error"
    },
    {
      "inputs": [
        {
          "internalType": "address",
          "name": "spender",
          "type": "address"
        },
        {
          "internalType": "uint256",
          "name": "allowance",
          "type": "uint256"
        },
        {
          "internalType": "uint256",
          "name": "needed",
          "type": "uint256"
        }
      ],
      "name": "ERC20InsufficientAllowance",
      "type": "error"
    },
    {
      "inputs": [
        {
          "internalType": "address",
          "name": "sender",
          "type": "address"
        },
        {
          "internalType": "uint256",
          "name": "balance",
          "type": "uint256"
        },
        {
          "internalType": "uint256",
          "name": "needed",
          "type": "uint256"
        }
      ],
      "name": "ERC20InsufficientBalance",
      "type": "error"
    },
    {
      "inputs": [
        {
          "internalType": "address",
          "name": "approver",
          "type": "address"
        }
      ],
      "name": "ERC20InvalidApprover",
      "type": "error"
    },
    {
      "inputs": [
        {
          "internalType": "address",
          "name": "receiver",
          "type": "address"
        }
      ],
      "name": "ERC20InvalidReceiver",
      "type": "error"
    },
    {
      "inputs": [
        {
          "internalType": "address",
          "name": "sender",
          "type": "address"
        }
      ],
      "name": "ERC20InvalidSender",
      "type": "error"
    },
    {
      "inputs": [
        {
          "internalType": "address",
          "name": "spender",
          "type": "address"
        }
      ],
      "name": "ERC20InvalidSpender",
      "type": "error"
    },
    {
      "inputs": [
        {
          "internalType": "address",
          "name": "token",
          "type": "address"
        }
      ],
      "name": "ERC20InvalidUnderlying",
      "type": "error"
    },
    {
      "inputs": [
        {
          "internalType": "uint8",
          "name": "bits",
          "type": "uint8"
        },
        {
          "internalType": "uint256",
          "name": "value",
          "type": "uint256"
        }
      ],
      "name": "SafeCastOverflowedUintDowncast",
      "type": "error"
    },
    {
      "inputs": [
        {
          "internalType": "address",
          "name": "token",
          "type": "address"
        }
      ],
      "name": "SafeERC20FailedOperation",
      "type": "error"
    },
    {
      "anonymous": false,
      "inputs": [
        {
          "indexed": true,
          "internalType": "address",
          "name": "owner",
          "type": "address"
        },
        {
          "indexed": true,
          "internalType": "address",
          "name": "spender",
          "type": "address"
        },
        {
          "indexed": false,
          "internalType": "uint256",
          "name": "value",
          "type": "uint256"
        }
      ],
      "name": "Approval",
      "type": "event"
    },
    {
      "anonymous": false,
      "inputs": [],
      "name": "DefaultAdminDelayChangeCanceled",
      "type": "event"
    },
    {
      "anonymous": false,
      "inputs": [
        {
          "indexed": false,
          "internalType": "uint48",
          "name": "newDelay",
          "type": "uint48"
        },
        {
          "indexed": false,
          "internalType": "uint48",
          "name": "effectSchedule",
          "type": "uint48"
        }
      ],
      "name": "DefaultAdminDelayChangeScheduled",
      "type": "event"
    },
    {
      "anonymous": false,
      "inputs": [],
      "name": "DefaultAdminTransferCanceled",
      "type": "event"
    },
    {
      "anonymous": false,
      "inputs": [
        {
          "indexed": true,
          "internalType": "address",
          "name": "newAdmin",
          "type": "address"
        },
        {
          "indexed": false,
          "internalType": "uint48",
          "name": "acceptSchedule",
          "type": "uint48"
        }
      ],
      "name": "DefaultAdminTransferScheduled",
      "type": "event"
    },
    {
      "anonymous": false,
      "inputs": [
        {
          "indexed": true,
          "internalType": "bytes32",
          "name": "role",
          "type": "bytes32"
        },
        {
          "indexed": true,
          "internalType": "bytes32",
          "name": "previousAdminRole",
          "type": "bytes32"
        },
        {
          "indexed": true,
          "internalType": "bytes32",
          "name": "newAdminRole",
          "type": "bytes32"
        }
      ],
      "name": "RoleAdminChanged",
      "type": "event"
    },
    {
      "anonymous": false,
      "inputs": [
        {
          "indexed": true,
          "internalType": "bytes32",
          "name": "role",
          "type": "bytes32"
        },
        {
          "indexed": true,
          "internalType": "address",
          "name": "account",
          "type": "address"
        },
        {
          "indexed": true,
          "internalType": "address",
          "name": "sender",
          "type": "address"
        }
      ],
      "name": "RoleGranted",
      "type": "event"
    },
    {
      "anonymous": false,
      "inputs": [
        {
          "indexed": true,
          "internalType": "bytes32",
          "name": "role",
          "type": "bytes32"
        },
        {
          "indexed": true,
          "internalType": "address",
          "name": "account",
          "type": "address"
        },
        {
          "indexed": true,
          "internalType": "address",
          "name": "sender",
          "type": "address"
        }
      ],
      "name": "RoleRevoked",
      "type": "event"
    },
    {
      "anonymous": false,
      "inputs": [
        {
          "indexed": true,
          "internalType": "address",
          "name": "from",
          "type": "address"
        },
        {
          "indexed": true,
          "internalType": "address",
          "name": "to",
          "type": "address"
        },
        {
          "indexed": false,
          "internalType": "uint256",
          "name": "value",
          "type": "uint256"
        }
      ],
      "name": "Transfer",
      "type": "event"
    },
    {
      "inputs": [],
      "name": "BLACK_HOLE_ADDRESS",
      "outputs": [
        {
          "internalType": "address",
          "name": "",
          "type": "address"
        }
      ],
      "stateMutability": "view",
      "type": "function"
    },
    {
      "inputs": [],
      "name": "DEFAULT_ADMIN_ROLE",
      "outputs": [
        {
          "internalType": "bytes32",
          "name": "",
          "type": "bytes32"
        }
      ],
      "stateMutability": "view",
      "type": "function"
    },
    {
      "inputs": [],
      "name": "MINT_ROLE",
      "outputs": [
        {
          "internalType": "bytes32",
          "name": "",
          "type": "bytes32"
        }
      ],
      "stateMutability": "view",
      "type": "function"
    },
    {
      "inputs": [],
      "name": "acceptDefaultAdminTransfer",
      "outputs": [],
      "stateMutability": "nonpayable",
      "type": "function"
    },
    {
      "inputs": [
        {
          "internalType": "address",
          "name": "owner",
          "type": "address"
        },
        {
          "internalType": "address",
          "name": "spender",
          "type": "address"
        }
      ],
      "name": "allowance",
      "outputs": [
        {
          "internalType": "uint256",
          "name": "",
          "type": "uint256"
        }
      ],
      "stateMutability": "view",
      "type": "function"
    },
    {
      "inputs": [
        {
          "internalType": "address",
          "name": "spender",
          "type": "address"
        },
        {
          "internalType": "uint256",
          "name": "value",
          "type": "uint256"
        }
      ],
      "name": "approve",
      "outputs": [
        {
          "internalType": "bool",
          "name": "",
          "type": "bool"
        }
      ],
      "stateMutability": "nonpayable",
      "type": "function"
    },
    {
      "inputs": [
        {
          "internalType": "address",
          "name": "account",
          "type": "address"
        }
      ],
      "name": "balanceOf",
      "outputs": [
        {
          "internalType": "uint256",
          "name": "",
          "type": "uint256"
        }
      ],
      "stateMutability": "view",
      "type": "function"
    },
    {
      "inputs": [
        {
          "internalType": "address",
          "name": "newAdmin",
          "type": "address"
        }
      ],
      "name": "beginDefaultAdminTransfer",
      "outputs": [],
      "stateMutability": "nonpayable",
      "type": "function"
    },
    {
      "inputs": [
        {
          "internalType": "uint256",
          "name": "value",
          "type": "uint256"
        }
      ],
      "name": "burn",
      "outputs": [],
      "stateMutability": "nonpayable",
      "type": "function"
    },
    {
      "inputs": [
        {
          "internalType": "address",
          "name": "account",
          "type": "address"
        },
        {
          "internalType": "uint256",
          "name": "value",
          "type": "uint256"
        }
      ],
      "name": "burnFrom",
      "outputs": [],
      "stateMutability": "nonpayable",
      "type": "function"
    },
    {
      "inputs": [],
      "name": "cancelDefaultAdminTransfer",
      "outputs": [],
      "stateMutability": "nonpayable",
      "type": "function"
    },
    {
      "inputs": [
        {
          "internalType": "uint48",
          "name": "newDelay",
          "type": "uint48"
        }
      ],
      "name": "changeDefaultAdminDelay",
      "outputs": [],
      "stateMutability": "nonpayable",
      "type": "function"
    },
    {
      "inputs": [],
      "name": "decimals",
      "outputs": [
        {
          "internalType": "uint8",
          "name": "",
          "type": "uint8"
        }
      ],
      "stateMutability": "view",
      "type": "function"
    },
    {
      "inputs": [],
      "name": "defaultAdmin",
      "outputs": [
        {
          "internalType": "address",
          "name": "",
          "type": "address"
        }
      ],
      "stateMutability": "view",
      "type": "function"
    },
    {
      "inputs": [],
      "name": "defaultAdminDelay",
      "outputs": [
        {
          "internalType": "uint48",
          "name": "",
          "type": "uint48"
        }
      ],
      "stateMutability": "view",
      "type": "function"
    },
    {
      "inputs": [],
      "name": "defaultAdminDelayIncreaseWait",
      "outputs": [
        {
          "internalType": "uint48",
          "name": "",
          "type": "uint48"
        }
      ],
      "stateMutability": "view",
      "type": "function"
    },
    {
      "inputs": [
        {
          "internalType": "address",
          "name": "account",
          "type": "address"
        },
        {
          "internalType": "uint256",
          "name": "value",
          "type": "uint256"
        }
      ],
      "name": "depositFor",
      "outputs": [
        {
          "internalType": "bool",
          "name": "",
          "type": "bool"
        }
      ],
      "stateMutability": "nonpayable",
      "type": "function"
    },
    {
      "inputs": [
        {
          "internalType": "bytes32",
          "name": "role",
          "type": "bytes32"
        }
      ],
      "name": "getRoleAdmin",
      "outputs": [
        {
          "internalType": "bytes32",
          "name": "",
          "type": "bytes32"
        }
      ],
      "stateMutability": "view",
      "type": "function"
    },
    {
      "inputs": [
        {
          "internalType": "address",
          "name": "_minter",
          "type": "address"
        }
      ],
      "name": "grantMinter",
      "outputs": [
        {
          "internalType": "bool",
          "name": "",
          "type": "bool"
        }
      ],
      "stateMutability": "nonpayable",
      "type": "function"
    },
    {
      "inputs": [
        {
          "internalType": "bytes32",
          "name": "role",
          "type": "bytes32"
        },
        {
          "internalType": "address",
          "name": "account",
          "type": "address"
        }
      ],
      "name": "grantRole",
      "outputs": [],
      "stateMutability": "nonpayable",
      "type": "function"
    },
    {
      "inputs": [
        {
          "internalType": "bytes32",
          "name": "role",
          "type": "bytes32"
        },
        {
          "internalType": "address",
          "name": "account",
          "type": "address"
        }
      ],
      "name": "hasRole",
      "outputs": [
        {
          "internalType": "bool",
          "name": "",
          "type": "bool"
        }
      ],
      "stateMutability": "view",
      "type": "function"
    },
    {
      "inputs": [
        {
          "internalType": "address",
          "name": "account",
          "type": "address"
        },
        {
          "internalType": "uint256",
          "name": "value",
          "type": "uint256"
        }
      ],
      "name": "mint",
      "outputs": [
        {
          "internalType": "bool",
          "name": "",
          "type": "bool"
        }
      ],
      "stateMutability": "nonpayable",
      "type": "function"
    },
    {
      "inputs": [],
      "name": "name",
      "outputs": [
        {
          "internalType": "string",
          "name": "",
          "type": "string"
        }
      ],
      "stateMutability": "view",
      "type": "function"
    },
    {
      "inputs": [],
      "name": "owner",
      "outputs": [
        {
          "internalType": "address",
          "name": "",
          "type": "address"
        }
      ],
      "stateMutability": "view",
      "type": "function"
    },
    {
      "inputs": [],
      "name": "pendingDefaultAdmin",
      "outputs": [
        {
          "internalType": "address",
          "name": "newAdmin",
          "type": "address"
        },
        {
          "internalType": "uint48",
          "name": "schedule",
          "type": "uint48"
        }
      ],
      "stateMutability": "view",
      "type": "function"
    },
    {
      "inputs": [],
      "name": "pendingDefaultAdminDelay",
      "outputs": [
        {
          "internalType": "uint48",
          "name": "newDelay",
          "type": "uint48"
        },
        {
          "internalType": "uint48",
          "name": "schedule",
          "type": "uint48"
        }
      ],
      "stateMutability": "view",
      "type": "function"
    },
    {
      "inputs": [
        {
          "internalType": "bytes32",
          "name": "role",
          "type": "bytes32"
        },
        {
          "internalType": "address",
          "name": "account",
          "type": "address"
        }
      ],
      "name": "renounceRole",
      "outputs": [],
      "stateMutability": "nonpayable",
      "type": "function"
    },
    {
      "inputs": [
        {
          "internalType": "bytes32",
          "name": "role",
          "type": "bytes32"
        },
        {
          "internalType": "address",
          "name": "account",
          "type": "address"
        }
      ],
      "name": "revokeRole",
      "outputs": [],
      "stateMutability": "nonpayable",
      "type": "function"
    },
    {
      "inputs": [],
      "name": "rollbackDefaultAdminDelay",
      "outputs": [],
      "stateMutability": "nonpayable",
      "type": "function"
    },
    {
      "inputs": [
        {
          "internalType": "bytes4",
          "name": "interfaceId",
          "type": "bytes4"
        }
      ],
      "name": "supportsInterface",
      "outputs": [
        {
          "internalType": "bool",
          "name": "",
          "type": "bool"
        }
      ],
      "stateMutability": "view",
      "type": "function"
    },
    {
      "inputs": [],
      "name": "symbol",
      "outputs": [
        {
          "internalType": "string",
          "name": "",
          "type": "string"
        }
      ],
      "stateMutability": "view",
      "type": "function"
    },
    {
      "inputs": [],
      "name": "totalSupply",
      "outputs": [
        {
          "internalType": "uint256",
          "name": "",
          "type": "uint256"
        }
      ],
      "stateMutability": "view",
      "type": "function"
    },
    {
      "inputs": [
        {
          "internalType": "address",
          "name": "to",
          "type": "address"
        },
        {
          "internalType": "uint256",
          "name": "value",
          "type": "uint256"
        }
      ],
      "name": "transfer",
      "outputs": [
        {
          "internalType": "bool",
          "name": "",
          "type": "bool"
        }
      ],
      "stateMutability": "nonpayable",
      "type": "function"
    },
    {
      "inputs": [
        {
          "internalType": "address",
          "name": "from",
          "type": "address"
        },
        {
          "internalType": "address",
          "name": "to",
          "type": "address"
        },
        {
          "internalType": "uint256",
          "name": "value",
          "type": "uint256"
        }
      ],
      "name": "transferFrom",
      "outputs": [
        {
          "internalType": "bool",
          "name": "",
          "type": "bool"
        }
      ],
      "stateMutability": "nonpayable",
      "type": "function"
    },
    {
      "inputs": [],
      "name": "underlying",
      "outputs": [
        {
          "internalType": "contract IERC20",
          "name": "",
          "type": "address"
        }
      ],
      "stateMutability": "view",
      "type": "function"
    }
  ],
  "bytecode": "0x60a060405234801561001057600080fd5b5060405161382938038061382983398181016040528101906100329190610820565b600081848481600390816100469190610ae0565b5080600490816100569190610ae0565b505050600073ffffffffffffffffffffffffffffffffffffffff168173ffffffffffffffffffffffffffffffffffffffff16036100cb5760006040517fc22c80220000000000000000000000000000000000000000000000000000000081526004016100c29190610bc1565b60405180910390fd5b816006601a6101000a81548165ffffffffffff021916908365ffffffffffff1602179055506101036000801b826102c960201b60201c565b5050503073ffffffffffffffffffffffffffffffffffffffff168473ffffffffffffffffffffffffffffffffffffffff160361017657306040517f438d6fe300000000000000000000000000000000000000000000000000000000815260040161016d9190610bc1565b60405180910390fd5b600073ffffffffffffffffffffffffffffffffffffffff168473ffffffffffffffffffffffffffffffffffffffff16036101e5576040517f08c379a00000000000000000000000000000000000000000000000000000000081526004016101dc90610c39565b60405180910390fd5b61dead73ffffffffffffffffffffffffffffffffffffffff168473ffffffffffffffffffffffffffffffffffffffff1603610255576040517f08c379a000000000000000000000000000000000000000000000000000000000815260040161024c90610c39565b60405180910390fd5b8373ffffffffffffffffffffffffffffffffffffffff1660808173ffffffffffffffffffffffffffffffffffffffff16815250506102c060405160200161029b90610ca5565b604051602081830303815290604052805190602001206000801b6103a260201b60201c565b50505050610cc5565b60008060001b830361038a57600073ffffffffffffffffffffffffffffffffffffffff166102fb6103f260201b60201c565b73ffffffffffffffffffffffffffffffffffffffff1614610348576040517f3fc3c27a00000000000000000000000000000000000000000000000000000000815260040160405180910390fd5b81600760006101000a81548173ffffffffffffffffffffffffffffffffffffffff021916908373ffffffffffffffffffffffffffffffffffffffff1602179055505b61039a838361041c60201b60201c565b905092915050565b6000801b82036103de576040517f3fc3c27a00000000000000000000000000000000000000000000000000000000815260040160405180910390fd5b6103ee828261051a60201b60201c565b5050565b6000600760009054906101000a900473ffffffffffffffffffffffffffffffffffffffff16905090565b600061042e838361057c60201b60201c565b61050f5760016005600085815260200190815260200160002060000160008473ffffffffffffffffffffffffffffffffffffffff1673ffffffffffffffffffffffffffffffffffffffff16815260200190815260200160002060006101000a81548160ff0219169083151502179055506104ac6105e760201b60201c565b73ffffffffffffffffffffffffffffffffffffffff168273ffffffffffffffffffffffffffffffffffffffff16847f2f8788117e7eff1d82e926ec794901d17c78024a50270940304540a733656f0d60405160405180910390a460019050610514565b600090505b92915050565b600061052b836105ef60201b60201c565b90508160056000858152602001908152602001600020600101819055508181847fbd79b86ffe0ab8e8776151514217cd7cacd52c909f66475c3af44e129f0b00ff60405160405180910390a4505050565b60006005600084815260200190815260200160002060000160008373ffffffffffffffffffffffffffffffffffffffff1673ffffffffffffffffffffffffffffffffffffffff16815260200190815260200160002060009054906101000a900460ff16905092915050565b600033905090565b600060056000838152602001908152602001600020600101549050919050565b6000604051905090565b600080fd5b600080fd5b600073ffffffffffffffffffffffffffffffffffffffff82169050919050565b600061064e82610623565b9050919050565b600061066082610643565b9050919050565b61067081610655565b811461067b57600080fd5b50565b60008151905061068d81610667565b92915050565b600080fd5b600080fd5b6000601f19601f8301169050919050565b7f4e487b7100000000000000000000000000000000000000000000000000000000600052604160045260246000fd5b6106e68261069d565b810181811067ffffffffffffffff82111715610705576107046106ae565b5b80604052505050565b600061071861060f565b905061072482826106dd565b919050565b600067ffffffffffffffff821115610744576107436106ae565b5b61074d8261069d565b9050602081019050919050565b60005b8381101561077857808201518184015260208101905061075d565b60008484015250505050565b600061079761079284610729565b61070e565b9050828152602081018484840111156107b3576107b2610698565b5b6107be84828561075a565b509392505050565b600082601f8301126107db576107da610693565b5b81516107eb848260208601610784565b91505092915050565b6107fd81610643565b811461080857600080fd5b50565b60008151905061081a816107f4565b92915050565b6000806000806080858703121561083a57610839610619565b5b60006108488782880161067e565b945050602085015167ffffffffffffffff8111156108695761086861061e565b5b610875878288016107c6565b935050604085015167ffffffffffffffff8111156108965761089561061e565b5b6108a2878288016107c6565b92505060606108b38782880161080b565b91505092959194509250565b600081519050919050565b7f4e487b7100000000000000000000000000000000000000000000000000000000600052602260045260246000fd5b6000600282049050600182168061091157607f821691505b602082108103610924576109236108ca565b5b50919050565b60008190508160005260206000209050919050565b60006020601f8301049050919050565b600082821b905092915050565b60006008830261098c7fffffffffffffffffffffffffffffffffffffffffffffffffffffffffffffffff8261094f565b610996868361094f565b95508019841693508086168417925050509392505050565b6000819050919050565b6000819050919050565b60006109dd6109d86109d3846109ae565b6109b8565b6109ae565b9050919050565b6000819050919050565b6109f7836109c2565b610a0b610a03826109e4565b84845461095c565b825550505050565b600090565b610a20610a13565b610a2b8184846109ee565b505050565b5b81811015610a4f57610a44600082610a18565b600181019050610a31565b5050565b601f821115610a9457610a658161092a565b610a6e8461093f565b81016020851015610a7d578190505b610a91610a898561093f565b830182610a30565b50505b505050565b600082821c905092915050565b6000610ab760001984600802610a99565b1980831691505092915050565b6000610ad08383610aa6565b9150826002028217905092915050565b610ae9826108bf565b67ffffffffffffffff811115610b0257610b016106ae565b5b610b0c82546108f9565b610b17828285610a53565b600060209050601f831160018114610b4a5760008415610b38578287015190505b610b428582610ac4565b865550610baa565b601f198416610b588661092a565b60005b82811015610b8057848901518255600182019150602085019450602081019050610b5b565b86831015610b9d5784890151610b99601f891682610aa6565b8355505b6001600288020188555050505b505050505050565b610bbb81610643565b82525050565b6000602082019050610bd66000830184610bb2565b92915050565b600082825260208201905092915050565b7f496e76616c696420756e6465726c79696e67546f6b656e206164647265737300600082015250565b6000610c23601f83610bdc565b9150610c2e82610bed565b602082019050919050565b60006020820190508181036000830152610c5281610c16565b9050919050565b7f4d494e5445520000000000000000000000000000000000000000000000000000600082015250565b6000610c8f600683610bdc565b9150610c9a82610c59565b602082019050919050565b60006020820190508181036000830152610cbe81610c82565b9050919050565b608051612b42610ce760003960008181610a4c0152610c450152612b426000f3fe608060405234801561001057600080fd5b50600436106102115760003560e01c8063649a5ec711610125578063a217fddf116100ad578063cf6eefb71161007c578063cf6eefb71461061b578063d547741f1461063a578063d602b9fd14610656578063dd62ed3e14610660578063e9a9c8501461069057610211565b8063a217fddf146105a5578063a9059cbb146105c3578063cc8463c8146105f3578063cefc14291461061157610211565b806384ef8ffc116100f457806384ef8ffc146104fc5780638da5cb5b1461051a57806391d148541461053857806395d89b4114610568578063a1eda53c1461058657610211565b8063649a5ec7146104765780636f307dc31461049257806370a08231146104b057806379cc6790146104e057610211565b8063261707fa116101a857806336568abe1161017757806336568abe146103d45780633cdfef01146103f057806340c10f191461040e57806342966c681461043e578063634e93da1461045a57610211565b8063261707fa1461033a5780632f2ff15d1461036a5780632f4f21e214610386578063313ce567146103b657610211565b80630aa6220b116101e45780630aa6220b146102b257806318160ddd146102bc57806323b872dd146102da578063248a9ca31461030a57610211565b806301ffc9a714610216578063022d63fb1461024657806306fdde0314610264578063095ea7b314610282575b600080fd5b610230600480360381019061022b91906122df565b6106ae565b60405161023d9190612327565b60405180910390f35b61024e610728565b60405161025b9190612363565b60405180910390f35b61026c610733565b604051610279919061240e565b60405180910390f35b61029c600480360381019061029791906124c4565b6107c5565b6040516102a99190612327565b60405180910390f35b6102ba6107e8565b005b6102c4610800565b6040516102d19190612513565b60405180910390f35b6102f460048036038101906102ef919061252e565b61080a565b6040516103019190612327565b60405180910390f35b610324600480360381019061031f91906125b7565b610839565b60405161033191906125f3565b60405180910390f35b610354600480360381019061034f919061260e565b610859565b6040516103619190612327565b60405180910390f35b610384600480360381019061037f919061263b565b610910565b005b6103a0600480360381019061039b91906124c4565b61095a565b6040516103ad9190612327565b60405180910390f35b6103be610a8a565b6040516103cb9190612697565b60405180910390f35b6103ee60048036038101906103e9919061263b565b610a99565b005b6103f8610bae565b60405161040591906126c1565b60405180910390f35b610428600480360381019061042391906124c4565b610bb4565b6040516104359190612327565b60405180910390f35b610458600480360381019061045391906126dc565b610bf9565b005b610474600480360381019061046f919061260e565b610c0d565b005b610490600480360381019061048b9190612735565b610c27565b005b61049a610c41565b6040516104a791906127c1565b60405180910390f35b6104ca60048036038101906104c5919061260e565b610c69565b6040516104d79190612513565b60405180910390f35b6104fa60048036038101906104f591906124c4565b610cb1565b005b610504610cd1565b60405161051191906126c1565b60405180910390f35b610522610cfb565b60405161052f91906126c1565b60405180910390f35b610552600480360381019061054d919061263b565b610d0a565b60405161055f9190612327565b60405180910390f35b610570610d75565b60405161057d919061240e565b60405180910390f35b61058e610e07565b60405161059c9291906127dc565b60405180910390f35b6105ad610e67565b6040516105ba91906125f3565b60405180910390f35b6105dd60048036038101906105d891906124c4565b610e6e565b6040516105ea9190612327565b60405180910390f35b6105fb610e91565b6040516106089190612363565b60405180910390f35b610619610eff565b005b610623610f95565b604051610631929190612805565b60405180910390f35b610654600480360381019061064f919061263b565b610fd8565b005b61065e611022565b005b61067a6004803603810190610675919061282e565b61103a565b6040516106879190612513565b60405180910390f35b6106986110c1565b6040516106a591906125f3565b60405180910390f35b60007f31498786000000000000000000000000000000000000000000000000000000007bffffffffffffffffffffffffffffffffffffffffffffffffffffffff1916827bffffffffffffffffffffffffffffffffffffffffffffffffffffffff191614806107215750610720826110e9565b5b9050919050565b600062069780905090565b6060600380546107429061289d565b80601f016020809104026020016040519081016040528092919081815260200182805461076e9061289d565b80156107bb5780601f10610790576101008083540402835291602001916107bb565b820191906000526020600020905b81548152906001019060200180831161079e57829003601f168201915b5050505050905090565b6000806107d0611163565b90506107dd81858561116b565b600191505092915050565b6000801b6107f58161117d565b6107fd611191565b50565b6000600254905090565b600080610815611163565b905061082285828561119e565b61082d858585611232565b60019150509392505050565b600060056000838152602001908152602001600020600101549050919050565b60008060001b6108688161117d565b600073ffffffffffffffffffffffffffffffffffffffff168373ffffffffffffffffffffffffffffffffffffffff16036108da5760006040517ff964fd760000000000000000000000000000000000000000000000000000000081526004016108d191906126c1565b60405180910390fd5b6109086040516020016108ec9061291a565b6040516020818303038152906040528051906020012084611326565b915050919050565b6000801b820361094c576040517f3fc3c27a00000000000000000000000000000000000000000000000000000000815260040160405180910390fd5b61095682826113f3565b5050565b600080610965611163565b90503073ffffffffffffffffffffffffffffffffffffffff168173ffffffffffffffffffffffffffffffffffffffff16036109d757306040517f96c6fd1e0000000000000000000000000000000000000000000000000000000081526004016109ce91906126c1565b60405180910390fd5b3073ffffffffffffffffffffffffffffffffffffffff168473ffffffffffffffffffffffffffffffffffffffff1603610a4757836040517fec442f05000000000000000000000000000000000000000000000000000000008152600401610a3e91906126c1565b60405180910390fd5b610a757f00000000000000000000000000000000000000000000000000000000000000008261dead86611415565b610a7f8484611497565b600191505092915050565b6000610a94611519565b905090565b6000801b82148015610add5750610aae610cd1565b73ffffffffffffffffffffffffffffffffffffffff168173ffffffffffffffffffffffffffffffffffffffff16145b15610ba057600080610aed610f95565b91509150600073ffffffffffffffffffffffffffffffffffffffff168273ffffffffffffffffffffffffffffffffffffffff16141580610b335750610b3181611522565b155b80610b445750610b4281611537565b155b15610b8657806040517f19ca5ebb000000000000000000000000000000000000000000000000000000008152600401610b7d9190612363565b60405180910390fd5b600660146101000a81549065ffffffffffff021916905550505b610baa828261154b565b5050565b61dead81565b6000604051602001610bc59061291a565b60405160208183030381529060405280519060200120610be48161117d565b610bee8484611497565b600191505092915050565b610c0a610c04611163565b826115c6565b50565b6000801b610c1a8161117d565b610c2382611648565b5050565b6000801b610c348161117d565b610c3d826116c3565b5050565b60007f0000000000000000000000000000000000000000000000000000000000000000905090565b60008060008373ffffffffffffffffffffffffffffffffffffffff1673ffffffffffffffffffffffffffffffffffffffff168152602001908152602001600020549050919050565b610cc382610cbd611163565b8361119e565b610ccd82826115c6565b5050565b6000600760009054906101000a900473ffffffffffffffffffffffffffffffffffffffff16905090565b6000610d05610cd1565b905090565b60006005600084815260200190815260200160002060000160008373ffffffffffffffffffffffffffffffffffffffff1673ffffffffffffffffffffffffffffffffffffffff16815260200190815260200160002060009054906101000a900460ff16905092915050565b606060048054610d849061289d565b80601f0160208091040260200160405190810160405280929190818152602001828054610db09061289d565b8015610dfd5780601f10610dd257610100808354040283529160200191610dfd565b820191906000526020600020905b815481529060010190602001808311610de057829003601f168201915b5050505050905090565b6000806007601a9054906101000a900465ffffffffffff169050610e2a81611522565b8015610e3c5750610e3a81611537565b155b610e4857600080610e5f565b600760149054906101000a900465ffffffffffff16815b915091509091565b6000801b81565b600080610e79611163565b9050610e86818585611232565b600191505092915050565b6000806007601a9054906101000a900465ffffffffffff169050610eb481611522565b8015610ec55750610ec481611537565b5b610ee3576006601a9054906101000a900465ffffffffffff16610ef9565b600760149054906101000a900465ffffffffffff165b91505090565b6000610f09610f95565b5090508073ffffffffffffffffffffffffffffffffffffffff16610f2b611163565b73ffffffffffffffffffffffffffffffffffffffff1614610f8a57610f4e611163565b6040517fc22c8022000000000000000000000000000000000000000000000000000000008152600401610f8191906126c1565b60405180910390fd5b610f9261172a565b50565b600080600660009054906101000a900473ffffffffffffffffffffffffffffffffffffffff16600660149054906101000a900465ffffffffffff16915091509091565b6000801b8203611014576040517f3fc3c27a00000000000000000000000000000000000000000000000000000000815260040160405180910390fd5b61101e82826117f9565b5050565b6000801b61102f8161117d565b61103761181b565b50565b6000600160008473ffffffffffffffffffffffffffffffffffffffff1673ffffffffffffffffffffffffffffffffffffffff16815260200190815260200160002060008373ffffffffffffffffffffffffffffffffffffffff1673ffffffffffffffffffffffffffffffffffffffff16815260200190815260200160002054905092915050565b6040516020016110d09061291a565b6040516020818303038152906040528051906020012081565b60007f7965db0b000000000000000000000000000000000000000000000000000000007bffffffffffffffffffffffffffffffffffffffffffffffffffffffff1916827bffffffffffffffffffffffffffffffffffffffffffffffffffffffff1916148061115c575061115b82611828565b5b9050919050565b600033905090565b6111788383836001611892565b505050565b61118e81611189611163565b611a69565b50565b61119c600080611aba565b565b60006111aa848461103a565b90507fffffffffffffffffffffffffffffffffffffffffffffffffffffffffffffffff811461122c578181101561121c578281836040517ffb8f41b20000000000000000000000000000000000000000000000000000000081526004016112139392919061293a565b60405180910390fd5b61122b84848484036000611892565b5b50505050565b600073ffffffffffffffffffffffffffffffffffffffff168373ffffffffffffffffffffffffffffffffffffffff16036112a45760006040517f96c6fd1e00000000000000000000000000000000000000000000000000000000815260040161129b91906126c1565b60405180910390fd5b600073ffffffffffffffffffffffffffffffffffffffff168273ffffffffffffffffffffffffffffffffffffffff16036113165760006040517fec442f0500000000000000000000000000000000000000000000000000000000815260040161130d91906126c1565b60405180910390fd5b611321838383611baa565b505050565b60008060001b83036113e157600073ffffffffffffffffffffffffffffffffffffffff16611352610cd1565b73ffffffffffffffffffffffffffffffffffffffff161461139f576040517f3fc3c27a00000000000000000000000000000000000000000000000000000000815260040160405180910390fd5b81600760006101000a81548173ffffffffffffffffffffffffffffffffffffffff021916908373ffffffffffffffffffffffffffffffffffffffff1602179055505b6113eb8383611dcf565b905092915050565b6113fc82610839565b6114058161117d565b61140f8383611326565b50505050565b611491848573ffffffffffffffffffffffffffffffffffffffff166323b872dd86868660405160240161144a93929190612971565b604051602081830303815290604052915060e01b6020820180517bffffffffffffffffffffffffffffffffffffffffffffffffffffffff8381831617835250505050611ec1565b50505050565b600073ffffffffffffffffffffffffffffffffffffffff168273ffffffffffffffffffffffffffffffffffffffff16036115095760006040517fec442f0500000000000000000000000000000000000000000000000000000000815260040161150091906126c1565b60405180910390fd5b61151560008383611baa565b5050565b60006012905090565b6000808265ffffffffffff1614159050919050565b6000428265ffffffffffff16109050919050565b611553611163565b73ffffffffffffffffffffffffffffffffffffffff168173ffffffffffffffffffffffffffffffffffffffff16146115b7576040517f6697b23200000000000000000000000000000000000000000000000000000000815260040160405180910390fd5b6115c18282611f63565b505050565b600073ffffffffffffffffffffffffffffffffffffffff168273ffffffffffffffffffffffffffffffffffffffff16036116385760006040517f96c6fd1e00000000000000000000000000000000000000000000000000000000815260040161162f91906126c1565b60405180910390fd5b61164482600083611baa565b5050565b6000611652610e91565b61165b42611fe6565b61166591906129d7565b90506116718282612040565b8173ffffffffffffffffffffffffffffffffffffffff167f3377dc44241e779dd06afab5b788a35ca5f3b778836e2990bdb26a2a4b2e5ed6826040516116b79190612363565b60405180910390a25050565b60006116ce826120f3565b6116d742611fe6565b6116e191906129d7565b90506116ed8282611aba565b7ff1038c18cf84a56e432fdbfaf746924b7ea511dfe03a6506a0ceba4888788d9b828260405161171e9291906127dc565b60405180910390a15050565b600080611735610f95565b9150915061174281611522565b1580611754575061175281611537565b155b1561179657806040517f19ca5ebb00000000000000000000000000000000000000000000000000000000815260040161178d9190612363565b60405180910390fd5b6117aa6000801b6117a5610cd1565b611f63565b506117b86000801b83611326565b50600660006101000a81549073ffffffffffffffffffffffffffffffffffffffff0219169055600660146101000a81549065ffffffffffff02191690555050565b61180282610839565b61180b8161117d565b6118158383611f63565b50505050565b611826600080612040565b565b60007f01ffc9a7000000000000000000000000000000000000000000000000000000007bffffffffffffffffffffffffffffffffffffffffffffffffffffffff1916827bffffffffffffffffffffffffffffffffffffffffffffffffffffffff1916149050919050565b600073ffffffffffffffffffffffffffffffffffffffff168473ffffffffffffffffffffffffffffffffffffffff16036119045760006040517fe602df050000000000000000000000000000000000000000000000000000000081526004016118fb91906126c1565b60405180910390fd5b600073ffffffffffffffffffffffffffffffffffffffff168373ffffffffffffffffffffffffffffffffffffffff16036119765760006040517f94280d6200000000000000000000000000000000000000000000000000000000815260040161196d91906126c1565b60405180910390fd5b81600160008673ffffffffffffffffffffffffffffffffffffffff1673ffffffffffffffffffffffffffffffffffffffff16815260200190815260200160002060008573ffffffffffffffffffffffffffffffffffffffff1673ffffffffffffffffffffffffffffffffffffffff168152602001908152602001600020819055508015611a63578273ffffffffffffffffffffffffffffffffffffffff168473ffffffffffffffffffffffffffffffffffffffff167f8c5be1e5ebec7d5bd14f71427d1e84f3dd0314c0f7b2291e5b200ac8c7c3b92584604051611a5a9190612513565b60405180910390a35b50505050565b611a738282610d0a565b611ab65780826040517fe2517d3f000000000000000000000000000000000000000000000000000000008152600401611aad929190612a11565b60405180910390fd5b5050565b60006007601a9054906101000a900465ffffffffffff169050611adc81611522565b15611b5b57611aea81611537565b15611b2d57600760149054906101000a900465ffffffffffff166006601a6101000a81548165ffffffffffff021916908365ffffffffffff160217905550611b5a565b7f2b1fa2edafe6f7b9e97c1a9e0c3660e645beb2dcaa2d45bdbf9beaf5472e1ec560405160405180910390a15b5b82600760146101000a81548165ffffffffffff021916908365ffffffffffff160217905550816007601a6101000a81548165ffffffffffff021916908365ffffffffffff160217905550505050565b600073ffffffffffffffffffffffffffffffffffffffff168373ffffffffffffffffffffffffffffffffffffffff1603611bfc578060026000828254611bf09190612a3a565b92505081905550611ccf565b60008060008573ffffffffffffffffffffffffffffffffffffffff1673ffffffffffffffffffffffffffffffffffffffff16815260200190815260200160002054905081811015611c88578381836040517fe450d38c000000000000000000000000000000000000000000000000000000008152600401611c7f9392919061293a565b60405180910390fd5b8181036000808673ffffffffffffffffffffffffffffffffffffffff1673ffffffffffffffffffffffffffffffffffffffff16815260200190815260200160002081905550505b600073ffffffffffffffffffffffffffffffffffffffff168273ffffffffffffffffffffffffffffffffffffffff1603611d185780600260008282540392505081905550611d65565b806000808473ffffffffffffffffffffffffffffffffffffffff1673ffffffffffffffffffffffffffffffffffffffff168152602001908152602001600020600082825401925050819055505b8173ffffffffffffffffffffffffffffffffffffffff168373ffffffffffffffffffffffffffffffffffffffff167fddf252ad1be2c89b69c2b068fc378daa952ba7f163c4a11628f55a4df523b3ef83604051611dc29190612513565b60405180910390a3505050565b6000611ddb8383610d0a565b611eb65760016005600085815260200190815260200160002060000160008473ffffffffffffffffffffffffffffffffffffffff1673ffffffffffffffffffffffffffffffffffffffff16815260200190815260200160002060006101000a81548160ff021916908315150217905550611e53611163565b73ffffffffffffffffffffffffffffffffffffffff168273ffffffffffffffffffffffffffffffffffffffff16847f2f8788117e7eff1d82e926ec794901d17c78024a50270940304540a733656f0d60405160405180910390a460019050611ebb565b600090505b92915050565b600080602060008451602086016000885af180611ee4576040513d6000823e3d81fd5b3d925060005191505060008214611eff576001811415611f1b565b60008473ffffffffffffffffffffffffffffffffffffffff163b145b15611f5d57836040517f5274afe7000000000000000000000000000000000000000000000000000000008152600401611f5491906126c1565b60405180910390fd5b50505050565b60008060001b83148015611fa95750611f7a610cd1565b73ffffffffffffffffffffffffffffffffffffffff168273ffffffffffffffffffffffffffffffffffffffff16145b15611fd457600760006101000a81549073ffffffffffffffffffffffffffffffffffffffff02191690555b611fde8383612152565b905092915050565b600065ffffffffffff8016821115612038576030826040517f6dfcc65000000000000000000000000000000000000000000000000000000000815260040161202f929190612aa9565b60405180910390fd5b819050919050565b600061204a610f95565b91505082600660006101000a81548173ffffffffffffffffffffffffffffffffffffffff021916908373ffffffffffffffffffffffffffffffffffffffff16021790555081600660146101000a81548165ffffffffffff021916908365ffffffffffff1602179055506120bc81611522565b156120ee577f8886ebfc4259abdbc16601dd8fb5678e54878f47b3c34836cfc51154a960510960405160405180910390a15b505050565b6000806120fe610e91565b90508065ffffffffffff168365ffffffffffff16116121285782816121239190612ad2565b61214a565b6121498365ffffffffffff1661213c610728565b65ffffffffffff16612245565b5b915050919050565b600061215e8383610d0a565b1561223a5760006005600085815260200190815260200160002060000160008473ffffffffffffffffffffffffffffffffffffffff1673ffffffffffffffffffffffffffffffffffffffff16815260200190815260200160002060006101000a81548160ff0219169083151502179055506121d7611163565b73ffffffffffffffffffffffffffffffffffffffff168273ffffffffffffffffffffffffffffffffffffffff16847ff6391f5c32d9c69d2a47ea670b442974b53935d1edc7fd64eb21e047a839171b60405160405180910390a46001905061223f565b600090505b92915050565b6000612254828410848461225c565b905092915050565b600061226784612276565b82841802821890509392505050565b60008115159050919050565b600080fd5b60007fffffffff0000000000000000000000000000000000000000000000000000000082169050919050565b6122bc81612287565b81146122c757600080fd5b50565b6000813590506122d9816122b3565b92915050565b6000602082840312156122f5576122f4612282565b5b6000612303848285016122ca565b91505092915050565b60008115159050919050565b6123218161230c565b82525050565b600060208201905061233c6000830184612318565b92915050565b600065ffffffffffff82169050919050565b61235d81612342565b82525050565b60006020820190506123786000830184612354565b92915050565b600081519050919050565b600082825260208201905092915050565b60005b838110156123b857808201518184015260208101905061239d565b60008484015250505050565b6000601f19601f8301169050919050565b60006123e08261237e565b6123ea8185612389565b93506123fa81856020860161239a565b612403816123c4565b840191505092915050565b6000602082019050818103600083015261242881846123d5565b905092915050565b600073ffffffffffffffffffffffffffffffffffffffff82169050919050565b600061245b82612430565b9050919050565b61246b81612450565b811461247657600080fd5b50565b60008135905061248881612462565b92915050565b6000819050919050565b6124a18161248e565b81146124ac57600080fd5b50565b6000813590506124be81612498565b92915050565b600080604083850312156124db576124da612282565b5b60006124e985828601612479565b92505060206124fa858286016124af565b9150509250929050565b61250d8161248e565b82525050565b60006020820190506125286000830184612504565b92915050565b60008060006060848603121561254757612546612282565b5b600061255586828701612479565b935050602061256686828701612479565b9250506040612577868287016124af565b9150509250925092565b6000819050919050565b61259481612581565b811461259f57600080fd5b50565b6000813590506125b18161258b565b92915050565b6000602082840312156125cd576125cc612282565b5b60006125db848285016125a2565b91505092915050565b6125ed81612581565b82525050565b600060208201905061260860008301846125e4565b92915050565b60006020828403121561262457612623612282565b5b600061263284828501612479565b91505092915050565b6000806040838503121561265257612651612282565b5b6000612660858286016125a2565b925050602061267185828601612479565b9150509250929050565b600060ff82169050919050565b6126918161267b565b82525050565b60006020820190506126ac6000830184612688565b92915050565b6126bb81612450565b82525050565b60006020820190506126d660008301846126b2565b92915050565b6000602082840312156126f2576126f1612282565b5b6000612700848285016124af565b91505092915050565b61271281612342565b811461271d57600080fd5b50565b60008135905061272f81612709565b92915050565b60006020828403121561274b5761274a612282565b5b600061275984828501612720565b91505092915050565b6000819050919050565b600061278761278261277d84612430565b612762565b612430565b9050919050565b60006127998261276c565b9050919050565b60006127ab8261278e565b9050919050565b6127bb816127a0565b82525050565b60006020820190506127d660008301846127b2565b92915050565b60006040820190506127f16000830185612354565b6127fe6020830184612354565b9392505050565b600060408201905061281a60008301856126b2565b6128276020830184612354565b9392505050565b6000806040838503121561284557612844612282565b5b600061285385828601612479565b925050602061286485828601612479565b9150509250929050565b7f4e487b7100000000000000000000000000000000000000000000000000000000600052602260045260246000fd5b600060028204905060018216806128b557607f821691505b6020821081036128c8576128c761286e565b5b50919050565b7f4d494e5445520000000000000000000000000000000000000000000000000000600082015250565b6000612904600683612389565b915061290f826128ce565b602082019050919050565b60006020820190508181036000830152612933816128f7565b9050919050565b600060608201905061294f60008301866126b2565b61295c6020830185612504565b6129696040830184612504565b949350505050565b600060608201905061298660008301866126b2565b61299360208301856126b2565b6129a06040830184612504565b949350505050565b7f4e487b7100000000000000000000000000000000000000000000000000000000600052601160045260246000fd5b60006129e282612342565b91506129ed83612342565b9250828201905065ffffffffffff811115612a0b57612a0a6129a8565b5b92915050565b6000604082019050612a2660008301856126b2565b612a3360208301846125e4565b9392505050565b6000612a458261248e565b9150612a508361248e565b9250828201905080821115612a6857612a676129a8565b5b92915050565b6000819050919050565b6000612a93612a8e612a8984612a6e565b612762565b61267b565b9050919050565b612aa381612a78565b82525050565b6000604082019050612abe6000830185612a9a565b612acb6020830184612504565b9392505050565b6000612add82612342565b9150612ae883612342565b9250828203905065ffffffffffff811115612b0657612b056129a8565b5b9291505056fea2646970667358221220ae37d02fe3eafb5bf398d1a87dcd045fc3df79c041a82038348027bdc5ac154d64736f6c634300081b0033",
  "linkReferences": {},
  "deployedLinkReferences": {}
}