{"abi":[{"type":"constructor","inputs":[{"name":"underlyingToken","type":"address","internalType":"contract IERC20"},{"name":"_name","type":"string","internalType":"string"},{"name":"_symbol","type":"string","internalType":"string"},{"name":"_admin","type":"address","internalType":"address"}],"stateMutability":"nonpayable"},{"type":"function","name":"BLACK_HOLE_ADDRESS","inputs":[],"outputs":[{"name":"","type":"address","internalType":"address"}],"stateMutability":"view"},{"type":"function","name":"DEFAULT_ADMIN_ROLE","inputs":[],"outputs":[{"name":"","type":"bytes32","internalType":"bytes32"}],"stateMutability":"view"},{"type":"function","name":"MINT_ROLE","inputs":[],"outputs":[{"name":"","type":"bytes32","internalType":"bytes32"}],"stateMutability":"view"},{"type":"function","name":"acceptDefaultAdminTransfer","inputs":[],"outputs":[],"stateMutability":"nonpayable"},{"type":"function","name":"allowance","inputs":[{"name":"owner","type":"address","internalType":"address"},{"name":"spender","type":"address","internalType":"address"}],"outputs":[{"name":"","type":"uint256","internalType":"uint256"}],"stateMutability":"view"},{"type":"function","name":"approve","inputs":[{"name":"spender","type":"address","internalType":"address"},{"name":"value","type":"uint256","internalType":"uint256"}],"outputs":[{"name":"","type":"bool","internalType":"bool"}],"stateMutability":"nonpayable"},{"type":"function","name":"balanceOf","inputs":[{"name":"account","type":"address","internalType":"address"}],"outputs":[{"name":"","type":"uint256","internalType":"uint256"}],"stateMutability":"view"},{"type":"function","name":"beginDefaultAdminTransfer","inputs":[{"name":"newAdmin","type":"address","internalType":"address"}],"outputs":[],"stateMutability":"nonpayable"},{"type":"function","name":"burn","inputs":[{"name":"value","type":"uint256","internalType":"uint256"}],"outputs":[],"stateMutability":"nonpayable"},{"type":"function","name":"burnFrom","inputs":[{"name":"account","type":"address","internalType":"address"},{"name":"value","type":"uint256","internalType":"uint256"}],"outputs":[],"stateMutability":"nonpayable"},{"type":"function","name":"cancelDefaultAdminTransfer","inputs":[],"outputs":[],"stateMutability":"nonpayable"},{"type":"function","name":"changeDefaultAdminDelay","inputs":[{"name":"newDelay","type":"uint48","internalType":"uint48"}],"outputs":[],"stateMutability":"nonpayable"},{"type":"function","name":"decimals","inputs":[],"outputs":[{"name":"","type":"uint8","internalType":"uint8"}],"stateMutability":"view"},{"type":"function","name":"defaultAdmin","inputs":[],"outputs":[{"name":"","type":"address","internalType":"address"}],"stateMutability":"view"},{"type":"function","name":"defaultAdminDelay","inputs":[],"outputs":[{"name":"","type":"uint48","internalType":"uint48"}],"stateMutability":"view"},{"type":"function","name":"defaultAdminDelayIncreaseWait","inputs":[],"outputs":[{"name":"","type":"uint48","internalType":"uint48"}],"stateMutability":"view"},{"type":"function","name":"depositFor","inputs":[{"name":"account","type":"address","internalType":"address"},{"name":"value","type":"uint256","internalType":"uint256"}],"outputs":[{"name":"","type":"bool","internalType":"bool"}],"stateMutability":"nonpayable"},{"type":"function","name":"getRoleAdmin","inputs":[{"name":"role","type":"bytes32","internalType":"bytes32"}],"outputs":[{"name":"","type":"bytes32","internalType":"bytes32"}],"stateMutability":"view"},{"type":"function","name":"grantMinter","inputs":[{"name":"_minter","type":"address","internalType":"address"}],"outputs":[{"name":"","type":"bool","internalType":"bool"}],"stateMutability":"nonpayable"},{"type":"function","name":"grantRole","inputs":[{"name":"role","type":"bytes32","internalType":"bytes32"},{"name":"account","type":"address","internalType":"address"}],"outputs":[],"stateMutability":"nonpayable"},{"type":"function","name":"hasRole","inputs":[{"name":"role","type":"bytes32","internalType":"bytes32"},{"name":"account","type":"address","internalType":"address"}],"outputs":[{"name":"","type":"bool","internalType":"bool"}],"stateMutability":"view"},{"type":"function","name":"mint","inputs":[{"name":"account","type":"address","internalType":"address"},{"name":"value","type":"uint256","internalType":"uint256"}],"outputs":[{"name":"","type":"bool","internalType":"bool"}],"stateMutability":"nonpayable"},{"type":"function","name":"name","inputs":[],"outputs":[{"name":"","type":"string","internalType":"string"}],"stateMutability":"view"},{"type":"function","name":"owner","inputs":[],"outputs":[{"name":"","type":"address","internalType":"address"}],"stateMutability":"view"},{"type":"function","name":"pendingDefaultAdmin","inputs":[],"outputs":[{"name":"newAdmin","type":"address","internalType":"address"},{"name":"schedule","type":"uint48","internalType":"uint48"}],"stateMutability":"view"},{"type":"function","name":"pendingDefaultAdminDelay","inputs":[],"outputs":[{"name":"newDelay","type":"uint48","internalType":"uint48"},{"name":"schedule","type":"uint48","internalType":"uint48"}],"stateMutability":"view"},{"type":"function","name":"renounceRole","inputs":[{"name":"role","type":"bytes32","internalType":"bytes32"},{"name":"account","type":"address","internalType":"address"}],"outputs":[],"stateMutability":"nonpayable"},{"type":"function","name":"revokeRole","inputs":[{"name":"role","type":"bytes32","internalType":"bytes32"},{"name":"account","type":"address","internalType":"address"}],"outputs":[],"stateMutability":"nonpayable"},{"type":"function","name":"rollbackDefaultAdminDelay","inputs":[],"outputs":[],"stateMutability":"nonpayable"},{"type":"function","name":"supportsInterface","inputs":[{"name":"interfaceId","type":"bytes4","internalType":"bytes4"}],"outputs":[{"name":"","type":"bool","internalType":"bool"}],"stateMutability":"view"},{"type":"function","name":"symbol","inputs":[],"outputs":[{"name":"","type":"string","internalType":"string"}],"stateMutability":"view"},{"type":"function","name":"totalSupply","inputs":[],"outputs":[{"name":"","type":"uint256","internalType":"uint256"}],"stateMutability":"view"},{"type":"function","name":"transfer","inputs":[{"name":"to","type":"address","internalType":"address"},{"name":"value","type":"uint256","internalType":"uint256"}],"outputs":[{"name":"","type":"bool","internalType":"bool"}],"stateMutability":"nonpayable"},{"type":"function","name":"transferFrom","inputs":[{"name":"from","type":"address","internalType":"address"},{"name":"to","type":"address","internalType":"address"},{"name":"value","type":"uint256","internalType":"uint256"}],"outputs":[{"name":"","type":"bool","internalType":"bool"}],"stateMutability":"nonpayable"},{"type":"function","name":"underlying","inputs":[],"outputs":[{"name":"","type":"address","internalType":"contract IERC20"}],"stateMutability":"view"},{"type":"event","name":"Approval","inputs":[{"name":"owner","type":"address","indexed":true,"internalType":"address"},{"name":"spender","type":"address","indexed":true,"internalType":"address"},{"name":"value","type":"uint256","indexed":false,"internalType":"uint256"}],"anonymous":false},{"type":"event","name":"DefaultAdminDelayChangeCanceled","inputs":[],"anonymous":false},{"type":"event","name":"DefaultAdminDelayChangeScheduled","inputs":[{"name":"newDelay","type":"uint48","indexed":false,"internalType":"uint48"},{"name":"effectSchedule","type":"uint48","indexed":false,"internalType":"uint48"}],"anonymous":false},{"type":"event","name":"DefaultAdminTransferCanceled","inputs":[],"anonymous":false},{"type":"event","name":"DefaultAdminTransferScheduled","inputs":[{"name":"newAdmin","type":"address","indexed":true,"internalType":"address"},{"name":"acceptSchedule","type":"uint48","indexed":false,"internalType":"uint48"}],"anonymous":false},{"type":"event","name":"RoleAdminChanged","inputs":[{"name":"role","type":"bytes32","indexed":true,"internalType":"bytes32"},{"name":"previousAdminRole","type":"bytes32","indexed":true,"internalType":"bytes32"},{"name":"newAdminRole","type":"bytes32","indexed":true,"internalType":"bytes32"}],"anonymous":false},{"type":"event","name":"RoleGranted","inputs":[{"name":"role","type":"bytes32","indexed":true,"internalType":"bytes32"},{"name":"account","type":"address","indexed":true,"internalType":"address"},{"name":"sender","type":"address","indexed":true,"internalType":"address"}],"anonymous":false},{"type":"event","name":"RoleRevoked","inputs":[{"name":"role","type":"bytes32","indexed":true,"internalType":"bytes32"},{"name":"account","type":"address","indexed":true,"internalType":"address"},{"name":"sender","type":"address","indexed":true,"internalType":"address"}],"anonymous":false},{"type":"event","name":"Transfer","inputs":[{"name":"from","type":"address","indexed":true,"internalType":"address"},{"name":"to","type":"address","indexed":true,"internalType":"address"},{"name":"value","type":"uint256","indexed":false,"internalType":"uint256"}],"anonymous":false},{"type":"error","name":"AccessControlBadConfirmation","inputs":[]},{"type":"error","name":"AccessControlEnforcedDefaultAdminDelay","inputs":[{"name":"schedule","type":"uint48","internalType":"uint48"}]},{"type":"error","name":"AccessControlEnforcedDefaultAdminRules","inputs":[]},{"type":"error","name":"AccessControlInvalidDefaultAdmin","inputs":[{"name":"defaultAdmin","type":"address","internalType":"address"}]},{"type":"error","name":"AccessControlInvalidMinter","inputs":[{"name":"minter","type":"address","internalType":"address"}]},{"type":"error","name":"AccessControlUnauthorizedAccount","inputs":[{"name":"account","type":"address","internalType":"address"},{"name":"neededRole","type":"bytes32","internalType":"bytes32"}]},{"type":"error","name":"ERC20InsufficientAllowance","inputs":[{"name":"spender","type":"address","internalType":"address"},{"name":"allowance","type":"uint256","internalType":"uint256"},{"name":"needed","type":"uint256","internalType":"uint256"}]},{"type":"error","name":"ERC20InsufficientBalance","inputs":[{"name":"sender","type":"address","internalType":"address"},{"name":"balance","type":"uint256","internalType":"uint256"},{"name":"needed","type":"uint256","internalType":"uint256"}]},{"type":"error","name":"ERC20InvalidApprover","inputs":[{"name":"approver","type":"address","internalType":"address"}]},{"type":"error","name":"ERC20InvalidReceiver","inputs":[{"name":"receiver","type":"address","internalType":"address"}]},{"type":"error","name":"ERC20InvalidSender","inputs":[{"name":"sender","type":"address","internalType":"address"}]},{"type":"error","name":"ERC20InvalidSpender","inputs":[{"name":"spender","type":"address","internalType":"address"}]},{"type":"error","name":"ERC20InvalidUnderlying","inputs":[{"name":"token","type":"address","internalType":"address"}]},{"type":"error","name":"SafeCastOverflowedUintDowncast","inputs":[{"name":"bits","type":"uint8","internalType":"uint8"},{"name":"value","type":"uint256","internalType":"uint256"}]},{"type":"error","name":"SafeERC20FailedOperation","inputs":[{"name":"token","type":"address","internalType":"address"}]}],"bytecode":{"object":"0x60a060405234801561000f575f5ffd5b50604051611be2380380611be283398101604081905261002e9161037a565b5f818484600361003e8382610488565b50600461004b8282610488565b5050506001600160a01b03811661007c57604051636116401160e11b81525f60048201526024015b60405180910390fd5b600680546001600160d01b0316600160d01b65ffffffffffff8516021790556100a55f82610136565b5050306001600160a01b0386160390506100d45760405163438d6fe360e01b8152306004820152602401610073565b6001600160a01b03841660805260405161012d9061010f9060200160208082526006908201526526a4a72a22a960d11b604082015260600190565b60408051601f1981840301815291905280516020909101205f6101a5565b50505050610542565b5f82610192575f61014f6007546001600160a01b031690565b6001600160a01b03161461017657604051631fe1e13d60e11b815260040160405180910390fd5b600780546001600160a01b0319166001600160a01b0384161790555b61019c83836101d1565b90505b92915050565b816101c357604051631fe1e13d60e11b815260040160405180910390fd5b6101cd828261027c565b5050565b5f8281526005602090815260408083206001600160a01b038516845290915281205460ff16610275575f8381526005602090815260408083206001600160a01b03861684529091529020805460ff1916600117905561022d3390565b6001600160a01b0316826001600160a01b0316847f2f8788117e7eff1d82e926ec794901d17c78024a50270940304540a733656f0d60405160405180910390a450600161019f565b505f61019f565b5f82815260056020526040808220600101805490849055905190918391839186917fbd79b86ffe0ab8e8776151514217cd7cacd52c909f66475c3af44e129f0b00ff9190a4505050565b6001600160a01b03811681146102da575f5ffd5b50565b634e487b7160e01b5f52604160045260245ffd5b5f82601f830112610300575f5ffd5b81516001600160401b03811115610319576103196102dd565b604051601f8201601f19908116603f011681016001600160401b0381118282101715610347576103476102dd565b60405281815283820160200185101561035e575f5ffd5b8160208501602083015e5f918101602001919091529392505050565b5f5f5f5f6080858703121561038d575f5ffd5b8451610398816102c6565b60208601519094506001600160401b038111156103b3575f5ffd5b6103bf878288016102f1565b604087015190945090506001600160401b038111156103dc575f5ffd5b6103e8878288016102f1565b92505060608501516103f9816102c6565b939692955090935050565b600181811c9082168061041857607f821691505b60208210810361043657634e487b7160e01b5f52602260045260245ffd5b50919050565b601f82111561048357805f5260205f20601f840160051c810160208510156104615750805b601f840160051c820191505b81811015610480575f815560010161046d565b50505b505050565b81516001600160401b038111156104a1576104a16102dd565b6104b5816104af8454610404565b8461043c565b6020601f8211600181146104e7575f83156104d05750848201515b5f19600385901b1c1916600184901b178455610480565b5f84815260208120601f198516915b8281101561051657878501518255602094850194600190920191016104f6565b508482101561053357868401515f19600387901b60f8161c191681555b50505050600190811b01905550565b6080516116816105615f395f8181610393015261070201526116815ff3fe608060405234801561000f575f5ffd5b5060043610610208575f3560e01c8063649a5ec71161011f578063a217fddf116100a9578063cf6eefb711610079578063cf6eefb714610477578063d547741f146104a5578063d602b9fd146104b8578063dd62ed3e146104c0578063e9a9c850146104f8575f5ffd5b8063a217fddf1461044d578063a9059cbb14610454578063cc8463c814610467578063cefc14291461046f575f5ffd5b806384ef8ffc116100ef57806384ef8ffc146103f25780638da5cb5b1461040357806391d148541461040b57806395d89b411461041e578063a1eda53c14610426575f5ffd5b8063649a5ec71461037e5780636f307dc31461039157806370a08231146103b757806379cc6790146103df575f5ffd5b8063261707fa116101a057806336568abe1161017057806336568abe146103115780633cdfef011461032457806340c10f191461034557806342966c6814610358578063634e93da1461036b575f5ffd5b8063261707fa146102c95780632f2ff15d146102dc5780632f4f21e2146102ef578063313ce56714610302575f5ffd5b80630aa6220b116101db5780630aa6220b1461027857806318160ddd1461028257806323b872dd14610294578063248a9ca3146102a7575f5ffd5b806301ffc9a71461020c578063022d63fb1461023457806306fdde0314610250578063095ea7b314610265575b5f5ffd5b61021f61021a366004611416565b610500565b60405190151581526020015b60405180910390f35b620697805b60405165ffffffffffff909116815260200161022b565b61025861052a565b60405161022b919061143d565b61021f61027336600461148d565b6105ba565b6102806105d1565b005b6002545b60405190815260200161022b565b61021f6102a23660046114b5565b6105e6565b6102866102b53660046114ef565b5f9081526005602052604090206001015490565b61021f6102d7366004611506565b610609565b6102806102ea36600461151f565b610679565b61021f6102fd36600461148d565b6106a5565b6040516012815260200161022b565b61028061031f36600461151f565b61073a565b61032d61dead81565b6040516001600160a01b03909116815260200161022b565b61021f61035336600461148d565b6107e0565b6102806103663660046114ef565b61080f565b610280610379366004611506565b610819565b61028061038c366004611549565b61082c565b7f000000000000000000000000000000000000000000000000000000000000000061032d565b6102866103c5366004611506565b6001600160a01b03165f9081526020819052604090205490565b6102806103ed36600461148d565b61083f565b6007546001600160a01b031661032d565b61032d610854565b61021f61041936600461151f565b610867565b610258610891565b61042e6108a0565b6040805165ffffffffffff93841681529290911660208301520161022b565b6102865f81565b61021f61046236600461148d565b6108f2565b6102396108ff565b61028061095d565b61047f61099c565b604080516001600160a01b03909316835265ffffffffffff90911660208301520161022b565b6102806104b336600461151f565b6109bd565b6102806109e5565b6102866104ce36600461156e565b6001600160a01b039182165f90815260016020908152604080832093909416825291909152205490565b6102866109f7565b5f6001600160e01b031982166318a4c3c360e11b1480610524575061052482610a1f565b92915050565b60606003805461053990611596565b80601f016020809104026020016040519081016040528092919081815260200182805461056590611596565b80156105b05780601f10610587576101008083540402835291602001916105b0565b820191905f5260205f20905b81548152906001019060200180831161059357829003601f168201915b5050505050905090565b5f336105c7818585610a53565b5060019392505050565b5f6105db81610a65565b6105e3610a6f565b50565b5f336105f3858285610a7b565b6105fe858585610af6565b506001949350505050565b5f8061061481610a65565b6001600160a01b03831661064257604051637cb27ebb60e11b81525f60048201526024015b60405180910390fd5b610670604051602001610654906115c8565b6040516020818303038152906040528051906020012084610b53565b91505b50919050565b8161069757604051631fe1e13d60e11b815260040160405180910390fd5b6106a18282610bc0565b5050565b5f333081036106c957604051634b637e8f60e11b8152306004820152602401610639565b306001600160a01b038516036106fd5760405163ec442f0560e01b81526001600160a01b0385166004820152602401610639565b61072b7f00000000000000000000000000000000000000000000000000000000000000008261dead86610be4565b6105c78484610c3e565b905090565b8115801561075557506007546001600160a01b038281169116145b156107d6575f5f61076461099c565b90925090506001600160a01b038216151580610786575065ffffffffffff8116155b8061079957504265ffffffffffff821610155b156107c1576040516319ca5ebb60e01b815265ffffffffffff82166004820152602401610639565b50506006805465ffffffffffff60a01b191690555b6106a18282610c72565b5f6040516020016107f0906115c8565b6040516020818303038152906040528051906020012061072b81610a65565b6105e33382610ca5565b5f61082381610a65565b6106a182610cd9565b5f61083681610a65565b6106a182610d4b565b61084a823383610a7b565b6106a18282610ca5565b5f6107356007546001600160a01b031690565b5f9182526005602090815260408084206001600160a01b0393909316845291905290205460ff1690565b60606004805461053990611596565b6007545f90600160d01b900465ffffffffffff1680151580156108cb57504265ffffffffffff821610155b6108d6575f5f6108ea565b600754600160a01b900465ffffffffffff16815b915091509091565b5f336105c7818585610af6565b6007545f90600160d01b900465ffffffffffff16801515801561092957504265ffffffffffff8216105b61094457600654600160d01b900465ffffffffffff16610957565b600754600160a01b900465ffffffffffff165b91505090565b5f61096661099c565b509050336001600160a01b0382161461099457604051636116401160e11b8152336004820152602401610639565b6105e3610dba565b6006546001600160a01b03811691600160a01b90910465ffffffffffff1690565b816109db57604051631fe1e13d60e11b815260040160405180910390fd5b6106a18282610e50565b5f6109ef81610a65565b6105e3610e74565b604051602001610a06906115c8565b6040516020818303038152906040528051906020012081565b5f6001600160e01b03198216637965db0b60e01b148061052457506301ffc9a760e01b6001600160e01b0319831614610524565b610a608383836001610e7e565b505050565b6105e38133610f50565b610a795f5f610f89565b565b6001600160a01b038381165f908152600160209081526040808320938616835292905220545f198114610af05781811015610ae257604051637dc7a0d960e11b81526001600160a01b03841660048201526024810182905260448101839052606401610639565b610af084848484035f610e7e565b50505050565b6001600160a01b038316610b1f57604051634b637e8f60e11b81525f6004820152602401610639565b6001600160a01b038216610b485760405163ec442f0560e01b81525f6004820152602401610639565b610a60838383611048565b5f82610baf575f610b6c6007546001600160a01b031690565b6001600160a01b031614610b9357604051631fe1e13d60e11b815260040160405180910390fd5b600780546001600160a01b0319166001600160a01b0384161790555b610bb9838361116e565b9392505050565b5f82815260056020526040902060010154610bda81610a65565b610af08383610b53565b604080516001600160a01b0385811660248301528416604482015260648082018490528251808303909101815260849091019091526020810180516001600160e01b03166323b872dd60e01b179052610af09085906111ff565b6001600160a01b038216610c675760405163ec442f0560e01b81525f6004820152602401610639565b6106a15f8383611048565b6001600160a01b0381163314610c9b5760405163334bd91960e11b815260040160405180910390fd5b610a60828261126b565b6001600160a01b038216610cce57604051634b637e8f60e11b81525f6004820152602401610639565b6106a1825f83611048565b5f610ce26108ff565b610ceb426112a7565b610cf591906115fc565b9050610d0182826112dd565b60405165ffffffffffff821681526001600160a01b038316907f3377dc44241e779dd06afab5b788a35ca5f3b778836e2990bdb26a2a4b2e5ed69060200160405180910390a25050565b5f610d558261135a565b610d5e426112a7565b610d6891906115fc565b9050610d748282610f89565b6040805165ffffffffffff8085168252831660208201527ff1038c18cf84a56e432fdbfaf746924b7ea511dfe03a6506a0ceba4888788d9b910160405180910390a15050565b5f5f610dc461099c565b91509150610dd98165ffffffffffff16151590565b1580610ded57504265ffffffffffff821610155b15610e15576040516319ca5ebb60e01b815265ffffffffffff82166004820152602401610639565b610e305f610e2b6007546001600160a01b031690565b61126b565b50610e3b5f83610b53565b5050600680546001600160d01b031916905550565b5f82815260056020526040902060010154610e6a81610a65565b610af0838361126b565b610a795f5f6112dd565b6001600160a01b038416610ea75760405163e602df0560e01b81525f6004820152602401610639565b6001600160a01b038316610ed057604051634a1406b160e11b81525f6004820152602401610639565b6001600160a01b038085165f9081526001602090815260408083209387168352929052208290558015610af057826001600160a01b0316846001600160a01b03167f8c5be1e5ebec7d5bd14f71427d1e84f3dd0314c0f7b2291e5b200ac8c7c3b92584604051610f4291815260200190565b60405180910390a350505050565b610f5a8282610867565b6106a15760405163e2517d3f60e01b81526001600160a01b038216600482015260248101839052604401610639565b600754600160d01b900465ffffffffffff16801561100b574265ffffffffffff82161015610fe257600754600680546001600160d01b0316600160a01b90920465ffffffffffff16600160d01b0291909117905561100b565b6040517f2b1fa2edafe6f7b9e97c1a9e0c3660e645beb2dcaa2d45bdbf9beaf5472e1ec5905f90a15b50600780546001600160a01b0316600160a01b65ffffffffffff948516026001600160d01b031617600160d01b9290931691909102919091179055565b6001600160a01b038316611072578060025f828254611067919061161a565b909155506110e29050565b6001600160a01b0383165f90815260208190526040902054818110156110c45760405163391434e360e21b81526001600160a01b03851660048201526024810182905260448101839052606401610639565b6001600160a01b0384165f9081526020819052604090209082900390555b6001600160a01b0382166110fe5760028054829003905561111c565b6001600160a01b0382165f9081526020819052604090208054820190555b816001600160a01b0316836001600160a01b03167fddf252ad1be2c89b69c2b068fc378daa952ba7f163c4a11628f55a4df523b3ef8360405161116191815260200190565b60405180910390a3505050565b5f6111798383610867565b6111f8575f8381526005602090815260408083206001600160a01b03861684529091529020805460ff191660011790556111b03390565b6001600160a01b0316826001600160a01b0316847f2f8788117e7eff1d82e926ec794901d17c78024a50270940304540a733656f0d60405160405180910390a4506001610524565b505f610524565b5f5f60205f8451602086015f885af18061121e576040513d5f823e3d81fd5b50505f513d91508115611235578060011415611242565b6001600160a01b0384163b155b15610af057604051635274afe760e01b81526001600160a01b0385166004820152602401610639565b5f8215801561128757506007546001600160a01b038381169116145b1561129d57600780546001600160a01b03191690555b610bb983836113ab565b5f65ffffffffffff8211156112d9576040516306dfcc6560e41b81526030600482015260248101839052604401610639565b5090565b5f6112e661099c565b6006805465ffffffffffff8616600160a01b026001600160d01b03199091166001600160a01b03881617179055915061132890508165ffffffffffff16151590565b15610a60576040517f8886ebfc4259abdbc16601dd8fb5678e54878f47b3c34836cfc51154a9605109905f90a1505050565b5f5f6113646108ff565b90508065ffffffffffff168365ffffffffffff161161138c57611387838261162d565b610670565b61067065ffffffffffff8416620697805f828218828410028218610bb9565b5f6113b68383610867565b156111f8575f8381526005602090815260408083206001600160a01b0386168085529252808320805460ff1916905551339286917ff6391f5c32d9c69d2a47ea670b442974b53935d1edc7fd64eb21e047a839171b9190a4506001610524565b5f60208284031215611426575f5ffd5b81356001600160e01b031981168114610bb9575f5ffd5b602081525f82518060208401528060208501604085015e5f604082850101526040601f19601f83011684010191505092915050565b80356001600160a01b0381168114611488575f5ffd5b919050565b5f5f6040838503121561149e575f5ffd5b6114a783611472565b946020939093013593505050565b5f5f5f606084860312156114c7575f5ffd5b6114d084611472565b92506114de60208501611472565b929592945050506040919091013590565b5f602082840312156114ff575f5ffd5b5035919050565b5f60208284031215611516575f5ffd5b610bb982611472565b5f5f60408385031215611530575f5ffd5b8235915061154060208401611472565b90509250929050565b5f60208284031215611559575f5ffd5b813565ffffffffffff81168114610bb9575f5ffd5b5f5f6040838503121561157f575f5ffd5b61158883611472565b915061154060208401611472565b600181811c908216806115aa57607f821691505b60208210810361067357634e487b7160e01b5f52602260045260245ffd5b60208082526006908201526526a4a72a22a960d11b604082015260600190565b634e487b7160e01b5f52601160045260245ffd5b65ffffffffffff8181168382160190811115610524576105246115e8565b80820180821115610524576105246115e8565b65ffffffffffff8281168282160390811115610524576105246115e856fea26469706673582212205f9471007458f3baee8488344cb0cd46ac6bc7259c24b2a9ce6229d65985e7a164736f6c634300081c0033","linkReferences":{}},"methodIdentifiers":{"BLACK_HOLE_ADDRESS()":"3cdfef01","DEFAULT_ADMIN_ROLE()":"a217fddf","MINT_ROLE()":"e9a9c850","acceptDefaultAdminTransfer()":"cefc1429","allowance(address,address)":"dd62ed3e","approve(address,uint256)":"095ea7b3","balanceOf(address)":"70a08231","beginDefaultAdminTransfer(address)":"634e93da","burn(uint256)":"42966c68","burnFrom(address,uint256)":"79cc6790","cancelDefaultAdminTransfer()":"d602b9fd","changeDefaultAdminDelay(uint48)":"649a5ec7","decimals()":"313ce567","defaultAdmin()":"84ef8ffc","defaultAdminDelay()":"cc8463c8","defaultAdminDelayIncreaseWait()":"022d63fb","depositFor(address,uint256)":"2f4f21e2","getRoleAdmin(bytes32)":"248a9ca3","grantMinter(address)":"261707fa","grantRole(bytes32,address)":"2f2ff15d","hasRole(bytes32,address)":"91d14854","mint(address,uint256)":"40c10f19","name()":"06fdde03","owner()":"8da5cb5b","pendingDefaultAdmin()":"cf6eefb7","pendingDefaultAdminDelay()":"a1eda53c","renounceRole(bytes32,address)":"36568abe","revokeRole(bytes32,address)":"d547741f","rollbackDefaultAdminDelay()":"0aa6220b","supportsInterface(bytes4)":"01ffc9a7","symbol()":"95d89b41","totalSupply()":"18160ddd","transfer(address,uint256)":"a9059cbb","transferFrom(address,address,uint256)":"23b872dd","underlying()":"6f307dc3"},"id":0}